{
  "transactions": [
    {
      "hash": "0xe6226dfdba2c11f7b0f84963077059b71411d4d98edc0e2a63d9dfdb7472e357",
      "transactionType": "CALL",
      "contractName": null,
      "contractAddress": "0x1c27fa72c5ca9b77d3e7d227c3ec04973908d333",
      "function": "mint(address,uint256,uint8)",
      "arguments": [
        "0x781a88bc719041cf60ff7bABD97B0eE0574c81e9",
        "1",
        "15"
      ],
      "transaction": {
        "from": "0x781a88bc719041cf60ff7babd97b0ee0574c81e9",
        "to": "0x1c27fa72c5ca9b77d3e7d227c3ec04973908d333",
        "gas": "0x37a9a",
        "value": "0x0",
        "input": "0x6112e8ac000000000000000000000000781a88bc719041cf60ff7babd97b0ee0574c81e90000000000000000000000000000000000000000000000000000000000000001000000000000000000000000000000000000000000000000000000000000000f",
        "nonce": "0x4",
        "chainId": "0xaa36a7"
      },
      "additionalContracts": [],
      "isFixedGasLimit": false
    }
  ],
  "receipts": [
    {
      "status": "0x1",
      "cumulativeGasUsed": "0x6de93b",
      "logs": [
        {
          "address": "0x1c27fa72c5ca9b77d3e7d227c3ec04973908d333",
          "topics": [
            "0xddf252ad1be2c89b69c2b068fc378daa952ba7f163c4a11628f55a4df523b3ef",
            "0x0000000000000000000000000000000000000000000000000000000000000000",
            "0x000000000000000000000000781a88bc719041cf60ff7babd97b0ee0574c81e9",
            "0x0000000000000000000000000000000000000000000000000000000000000001"
          ],
          "data": "0x",
          "blockHash": "0x85fa67a679c3c0dda3d651ac0d5b8d7b020e1c4375293eb46c4e96039de02cbc",
          "blockNumber": "0x6d230c",
          "transactionHash": "0xe6226dfdba2c11f7b0f84963077059b71411d4d98edc0e2a63d9dfdb7472e357",
          "transactionIndex": "0x65",
          "logIndex": "0x3c",
          "removed": false
        }
      ],
      "logsBloom": "0x00004000000000000000000000000000000000000000000000000000000000000000000000000000000000000000000000000000000000000000200000040000000000000000000000000008000000000000000000040000000000000000000000000040020000000008000000000800000000000000000000000010000000000000000000000000000000000000000000000000000000000000000000000000000000000000000000000000000000000000000000000000000000000000000000000002001000080000000000000000000000000000000000000000000060000000000000000000000000000000000000000000000000000000000000000000",
      "type": "0x2",
      "transactionHash": "0xe6226dfdba2c11f7b0f84963077059b71411d4d98edc0e2a63d9dfdb7472e357",
      "transactionIndex": "0x65",
      "blockHash": "0x85fa67a679c3c0dda3d651ac0d5b8d7b020e1c4375293eb46c4e96039de02cbc",
      "blockNumber": "0x6d230c",
      "gasUsed": "0x284c8",
      "effectiveGasPrice": "0x464f71e6",
      "from": "0x781a88bc719041cf60ff7babd97b0ee0574c81e9",
      "to": "0x1c27fa72c5ca9b77d3e7d227c3ec04973908d333",
      "contractAddress": null
    }
  ],
  "libraries": [],
  "pending": [],
  "returns": {},
  "timestamp": 1732572757,
  "chain": 11155111,
  "commit": "61b8c61"
}